:1000000000800020BD010000013A0000B939000065
:10001000B9390000B9390000B9390000B939000018
:10002000B9390000B9390000B9390000013A0000BF
:10003000013A0000B9390000C1370000C53800009E
:10004000013A0000013A0000013A0000013A0000C4
:10005000013A0000013A0000013A0000013A0000B4
:10006000013A0000013A0000013A0000013A0000A4
:10007000013A0000013A0000013A0000013A000094
:10008000013A0000013A0000013A0000013A000084
:10009000013A0000013A0000013A0000013A000074
:1000A000013A0000013A0000013A0000013A000064
:1000B000013A0000013A0000013A0000013A000054
:1000C000013A0000013A0000013A0000013A000044
:1000D000013A0000013A0000013A0000013A000034
:1000E000013A0000013A0000013A0000013A000024
:1000F000013A0000CD1B0000013A0000A1230000DE
:10010000013A0000A13A0000013A0000013A000063
:10011000013A0000013A0000013A0000013A0000F3
:10012000013A0000013A0000013A0000013A0000E3
:10013000013A0000013A0000013A0000013A0000D3
:10014000013A0000013A0000013A0000013A0000C3
:10015000091000001D1000003110000045100000C3
:10016000013A000075260000013A0000013A000043
:10017000013A0000013A0000013A0000013A000093
:10018000013A0000013A0000013A0000013A000083
:10019000013A0000013A0000013A0000013A000073
:1001A000013A0000013A0000013A0000013A000063
:1001B000013A0000013A0000013A0000564B4CF2AF
:1001C000205210B51A804DF628121A8000BF00BFC9
:1001D00003F01AFC514B4FF010621A60504A9A60BB
:1001E000504ADA60504A136813F4807304D14F49BF
:1001F0000B604FF4A85313604D4B1A78110703D5C9
:100200001A7842F008021A704A4B4B492A221A7097
:100210004A4A4B4B8B4204D252F8040F43F8040B6A
:10022000F8E7484B484900228B4202D243F8042B9E
:10023000FAE74649464A002352F8230041F82300D2
:1002400001336F2BF8D1434B434A802103F8011B44
:100250009342FBD1414B3D4A1A60414B8A221A70AE
:10026000A3F5805324225A70A0221A709A7992071B
:10027000FCD59A79D406FCD43A4A937903F00C035E
:10028000082B384BF9D103221A7140225A719A79FE
:100290009006FCD5334A9179324B4906FBD5324A58
:1002A000324911600221516020221A709A7902F0BD
:1002B0000C020C2AFAD12E4B2E4A1A602E4B2F4AD2
:1002C0001A6000225A60072243F8042C2C4AC3F813
:1002D0000C2D62B601F0AAF8144B1B68DA0705D59D
:1002E000284801F015F8284B284A1A60284B1B783B
:1002F0005B0609D5244C254B22689A4204D121483B
:1003000001F006F80023236003F094FC03F082FB65
:1003100000F0D8FEFEE700BF0E200540308004400C
:10032000823F04000100002B10D0034014D0034092
:1003300002D0074000E007406C90FF1FE448000037
:100340002087FF1F6C90FF1FFC93FF1F0082FF1F81
:100350000000000000E400E05FE400E008ED00E0E1
:100360000050064000400640448004400000030165
:1003700004800440C010050014E000E0FF76010096
:10038000000020200E867A5C1CE00340A5C3945A2E
:1003900000F00740FFFFFFFFFFFFFFFFFFFFFFFF32
:1003A000FFFFFFFFFFFFFFFFFFFFFFFFFFFFFFFF5D
:1003B000FFFFFFFFFFFFFFFFFFFFFFFFFFFFFFFF4D
:1003C000FFFFFFFFFFFFFFFFFFFFFFFFFFFFFFFF3D
:1003D000FFFFFFFFFFFFFFFFFFFFFFFFFFFFFFFF2D
:1003E000FFFFFFFFFFFFFFFFFFFFFFFFFFFFFFFF1D
:1003F000FFFFFFFFFFFFFFFFFFFFFFFFFFFFFFFF0D
:10040000FFFFFFFFFFFFFFFFFFFFFFFFDEF9FFFF23
:1004100010B5054C237833B9044B13B10448AFF33E
:1004200000800123237010BD6C90FF1F00000000AE
:10043000E8480000084B10B51BB108490848AFF365
:1004400000800848036803B910BD074B002BFBD0A0
:10045000BDE81040184700BF000000007090FF1F6B
:10046000E84800006C90FF1F0000000010B50C4C25
:1004700001210D2000F064FF204601F0A3F84FF4A5
:10048000807001F015F9204601F030FC4FF48070C7
:1004900001F0A2FC0A20BDE8104000F079BF00BFC7
:1004A00000710200F0B5504C2368052B83B001DDCC
:1004B00003B0F0BD4D4E4E4A4E4D16F813000121CB
:1004C0000023137053709370D37069702B7001F018
:1004D00063FA01F0DBFA236806EB4303587801F076
:1004E0005BFA29460222444800F0D6FD0228DFD1FB
:1004F000424B1B78002B35D023686978404F5A0057
:100500003244767852783948012396428DF8043087
:1005100043D0C678964246D04379934237D0C379C8
:10052000934247D0437A934252D0C37A934255D0F4
:100530009DF805309DF80610013351FA83F304212C
:100540000DEB01008DF8073002F07AFF2368287860
:1005500095F801E05A003A4407F8130082F801E0E8
:1005600003B0F0BD274B1B7853B12368244F287884
:1005700017F8132082424FEA430221D06978BFE77F
:100580002368287895F801E01D4F5A00E3E702231D
:100590008DF806108DF80530CEE700238DF8061093
:1005A0008DF80530C8E70139C9B28DF806108DF80D
:1005B0000530C1E704238DF806108DF80530BBE740
:1005C00007EB020E69789EF801E0714598D1C2E709
:1005D00005238DF806108DF80530ADE706238DF85C
:1005E00006108DF80530A7E7DC90FF1F2487FF1F5A
:1005F000E490FF1FE090FF1F3C87FF1FEC90FF1F60
:10060000C890FF1F8890FF1FF0B5504C206803284A
:1006100083B001DD03B0F0BD4D4E4E4A4E4D002378
:1006200006EB400002210127137053709370D370C2
:100630002B706F7001F0A4FD29460222474800F09C
:100640002BFD0228E6D1464B1B7873B3226895F840
:1006500001E0444F5300334470785B783C4A0221F8
:1006600098428DF804103CD0D078984242D050790E
:1006700098422ED0D2799A4245D09DF805209DF817
:10068000063013440233DBB204210DEB01008DF878
:10069000073002F0D5FE22682978687853003B4481
:1006A00007F81210587003B0F0BD2F4B22681B786A
:1006B00053B12C4F297817F812308B424FEA42037E
:1006C0002ED095F801E0C6E729786878254F5300C9
:1006D000E5E70EF104038DF805108DF806E0DBB2B6
:1006E000D2E70EEB010300228DF806E0DBB28DF8B5
:1006F0000520C9E70EF1030301228DF806E0DBB205
:100700008DF80520C0E72B780522042B8DF80520F5
:100710000DD0052B12D09DF806300733DBB2B3E7BE
:10072000F81895F801E04078864594D1B7E7BEF116
:10073000000FF0D18DF806E00723A5E7BEF1010F09
:10074000E9D18DF806E008239EE700BFDC90FF1F8B
:100750003487FF1FE490FF1FE090FF1F4C87FF1FAF
:10076000EC90FF1FD490FF1F8890FF1F30B5012829
:1007700083B0044603D0022821D003B030BD00214D
:10078000154800F0E1FA154B1A6890421FD0186026
:100790000028F2D0E4B2C3B20421E21D53FA82F27F
:1007A00007250DEB01008DF804408DF807208DF82A
:1007B00006308DF8055002F043FE03B030BD002135
:1007C000074800F0C1FA074B1A689042DFD1064A89
:1007D0001278002AD1D0DAE78C90FF1FE890FF1F33
:1007E000A890FF1FC490FF1FEC90FF1F00B583B0BF
:1007F0008DF804008DF806107AB1FD238DF80530D0
:10080000014453FA81F304210DEB01008DF8073008
:1008100002F016FE03B05DF804FB8DF80530EFE73B
:100820002DE9F0472B4DDFF8B0900646012000245B
:1008300086428A4690461F4689F8010089F80040A2
:100840002C706C70AC70EC701BD0022E35D0BEF1E9
:10085000020F02D00020BDE8F0871F4B7A1EF0B2D5
:10086000033713F8011B12F8014F8C4230D1BA4202
:10087000F7D101224146FF23FFF7B8FF0120BDE871
:10088000F087087801F088F801F000F99AF8010083
:1008900001F082F801F0FAF89AF8020001F07CF811
:1008A00001F0F4F89AF8030001F076F849460222C4
:1008B0000A4800F0F1FB8646C9E70846042101F02A
:1008C0005FFC32464946064800F0E6FB8646BEE736
:1008D0000022CFE7E490FF1FE090FF1F3C87FF1F3F
:1008E0004C87FF1F10B501E002F0F4FC02F02EFD72
:1008F0000028F9DCFE23002219461046BDE810400E
:10090000FFF774BF08B502F021FD002808DD02F0F2
:100910001DFD032804DC0A20BDE8084000F038BDB6
:1009200008BD00BF2DE9F04F85B0FFF7EBFF02F0E7
:100930000DFD824DDFF81882DFF81892804E0328F3
:10094000AA46C34636DD3368039300240123039F80
:1009500089F800402C706C70AC70EC7089F8013034
:1009600007E033680293029BD8F80820DB1B934210
:1009700023D2C4F10401281902F0F6FC0444032C2C
:10098000EFD9042C10D19AF800009AF801209AF8B7
:1009900002409AF8031083182344DBB2994240F0D6
:1009A000A28070B9012A51D0FFF7ACFF02F0CEFC53
:1009B0000328C8DC05B0BDE8F08F01238BF80C30AC
:1009C000F2E7012822D00228EED1002A69D1802244
:1009D000E8238DF804208DF80530002C00F092807B
:1009E000012C00F0A1809DF806406834E4B26B460B
:1009F000002201A902208DF80740FFF711FF00280F
:100A0000D2D0504B9DF806205A70CDE742BB8022D1
:100A1000E8238DF804208DF80530002C6BD1AA2333
:100A200012248DF806308DF801308DF800406B46A9
:100A3000002201A901208DF80740FFF7F1FE0028F0
:100A4000B2D0414B9DF806205A70ADE7012CABD1D6
:100A50003E49FE230C7022462146FFF7C7FEA3E75E
:100A6000012AA1D1631E042B9ED8A4F15F01C9B253
:100A7000A0278DF807108DF800106B46104601A9CD
:100A80008DF805208DF806408DF801408DF8047032
:100A9000FFF7C6FE002887D02B4B9DF80620DA70A2
:100AA00082E7012A80D1052C3FF67EAF04F1700366
:100AB000DBB2A0218DF806408DF801408DF807309B
:100AC000D0248DF800308DF804106B4601A98DF804
:100AD0000540FFF7A5FE00283FF466AF194B9DF8CF
:100AE0000620DA7060E71146FE230022FFF77EFE43
:100AF00005B0BDE8F08F012C0DD09DF8064068349C
:100B0000E4B294E7AA2312248DF806308DF8013060
:100B10008DF800406BE75523BD248DF806308DF825
:100B200001308DF8004082E75523BD248DF8063052
:100B30008DF801308DF8004059E700BFE490FF1FA9
:100B4000F890FF1FD490FF1FC890FF1F3087FF1F32
:100B50007087FF1FE090FF1F70B5FFF7A3FC0A200E
:100B600000F016FCFFF750FD0A2000F011FCFFF723
:100B7000D9FE02F0EBFB50B9164A13680133062B7D
:100B8000136007D00A20BDE8704000F001BCFFF7F9
:100B9000A9FEF1E7104B114E0125002428461460F0
:100BA0001D703470FFF7E2FD0220FFF7DFFD0C4BF4
:100BB0001A780AB135701C7001210D2000F0BAFBC3
:100BC0004FF47A7000F0E4FB00210D20BDE8704086
:100BD00000F0B0BBDC90FF1F8890FF1FEC90FF1F60
:100BE0003087FF1F10B5C82304220521054800F0F7
:100BF00013F8C823022203210348BDE8104000F087
:100C00000BB800BF8C90FF1FA890FF1F10B50446C3
:100C100000F0D8F9204610BD70B504460E461248C3
:100C200001212171617150F83610A160013350F833
:100C30003250B3F5FA7F01F5207121619ABFC3EB01
:100C4000C30103EBC10346F68D7305F5007510462D
:100C50006361E560002100F073FB3046012100F084
:100C60006FFB204670BD00BF3447000010B501691E
:100C700002790C7822430A70816804790A7822EAA2
:100C8000040280230A70013BFDD1816802790C784F
:100C900022434FF4A0730A70013BFDD182680179B1
:100CA000137823EA0103137002690179137823EAA8
:100CB00001031370C268437912781A4201D00020F0
:100CC00010BD044600F042FB636903F5B5530833D9
:100CD0001844A06104E000F039FBA3699842EED803
:100CE000E268637912781A42F5D000F02FFB63694D
:100CF0001844A061012010BD10B5044651B1013166
:100D0000B1F5FA7F9ABFC1EBC10301EBC30146F60F
:100D10008D7141612046FFF7A9FF28B911E000F06D
:100D200015FBA36998420CD8E268637912781A42DD
:100D3000F5D100F00BFB6369A269013B9B1A1844D3
:100D400010BD002010BD00BF08B5FFF7D5FF044B54
:100D5000A3FB0023C01A03EB5000400908BD00BFED
:100D6000DD47701F30B4054B054A06498024002535
:100D70001C711D60184630BC02F04ABFF090FF1F86
:100D80002087FF1F0D0C00000368C9B21B681847BD
:100D90000368C9B21B6818470368C9B21B681847C3
:100DA0000368C9B21B68184708B5084600F0F4FD8F
:100DB000012008BD08B5084600F0EEFD012008BD81
:100DC00038B508460D4603F03BFA0446014628466E
:100DD00000F0ECFD204638BD10B50846144611461B
:100DE00000F0E4FD204610BD00F0CABE08B508467C
:100DF00000F0AAFD003018BF012008BD08B5084664
:100E000000F080FD003018BF012008BD08461146E3
:100E100000F014BD084600F04BBD00BF084600F0CE
:100E2000F1BC00BF00F08CBC4B0803F1376000F54B
:100E3000D830B0FBF1F000F0C5BB00BF10B54B08D7
:100E400003F13760144600F5D830B0FBF1F000F044
:100E5000B9FB2046BDE8104000F02ABC00F078BE87
:100E600000F042BE00F030BE00F010BE00F01ABE2E
:100E7000704700BF08B5084601F01EF9012008BD03
:100E800008B5084601F018F9012008BD38B5084634
:100E90000D4603F0D5F904460146284601F070F9E5
:100EA000204638BD10B508461446114601F068F9D1
:100EB000204610BD01F04EBA08B5084601F0DCF836
:100EC000003018BF012008BD08B5084601F0B2F88F
:100ED000003018BF012008BD0846114601F042B895
:100EE000084601F079B800BF084601F01FB800BFFE
:100EF00000F0BABF4B0803F1376000F5D830B0FB03
:100F0000F1F000F0F3BE00BF10B54B0803F13760FD
:100F1000144600F5D830B0FBF1F000F0E7FE2046B3
:100F2000BDE8104000F058BF01F0FCB901F0C6B9AF
:100F300001F0B4B901F094B901F09EB90368064A12
:100F40001B68934205D110B5C8B201F0B5F8012075
:100F500010BDC9B2184700BF810E00000368064AE1
:100F60001B68934205D110B5C8B201F0A5F8012065
:100F700010BDC9B2184700BF810E00000368064AC1
:100F80001B68934205D110B5C8B201F095F8012055
:100F900010BDC9B2184700BF810E00000368064AA1
:100FA0001B68934205D110B5C8B201F085F8012045
:100FB00010BDC9B2184700BF810E0000704700BFC6
:100FC000704700BF0168A9B10B4BF0B40B441B1173
:100FD0000A4E0B4F0B4D46F8237003F1440202F00A
:100FE0001F0401235211A340002445F822308C60D5
:100FF0000460F0BC704700BF008FFCBF5C87FF1F20
:10100000C10F000080E100E0024A034B01211160A2
:101010001B6818470C7103405C87FF1F024A034B93
:10102000012111605B6818471C7103405C87FF1F3A
:10103000024A034B012111609B6818472C71034041
:101040005C87FF1F024A034B01211160DB681847D0
:101050003C7103405C87FF1F70B50E4D82B02B685A
:101060000093009E044608E002F0EEFA2B6801931C
:10107000019BA2689B1B934207D2236820465B69B1
:1010800098470028F0DB02B070BD4FF0FF3002B08F
:1010900070BD00BFF890FF1FF8B5164682B1074635
:1010A0000D46002404E00134A64205F8010B07D0E8
:1010B0003846FFF7D1FF0028F5DA012326463B73B7
:1010C0003046F8BD08B5FFF7D1F9FFF745FD02F04E
:1010D000BBFAFAE7844641EA000313F003036DD13B
:1010E000403A41D351F8043B40F8043B51F8043BEB
:1010F00040F8043B51F8043B40F8043B51F8043BF2
:1011000040F8043B51F8043B40F8043B51F8043BE1
:1011100040F8043B51F8043B40F8043B51F8043BD1
:1011200040F8043B51F8043B40F8043B51F8043BC1
:1011300040F8043B51F8043B40F8043B51F8043BB1
:1011400040F8043B51F8043B40F8043B51F8043BA1
:1011500040F8043B51F8043B40F8043B51F8043B91
:1011600040F8043B403ABDD2303211D351F8043B31
:1011700040F8043B51F8043B40F8043B51F8043B71
:1011800040F8043B51F8043B40F8043B103AEDD2E0
:101190000C3205D351F8043B40F8043B043AF9D231
:1011A000043208D0D2071CBF11F8013B00F8013B04
:1011B00001D30B8803806046704700BF082A13D311
:1011C0008B078DD010F003038AD0C3F10403D21A29
:1011D000DB071CBF11F8013B00F8013B80D331F85D
:1011E000023B20F8023B7BE7043AD9D3013A11F8DD
:1011F000013B00F8013BF9D20B7803704B78437048
:101200008B78837060467047F0B44D1E2E460024E4
:1012100000E00134B0FBF2F302FB1300092800F1F7
:1012200030078ABF3730F8B2C0B206F8010F18464F
:10123000002BEED10A1953704CB1107815F8016FDC
:1012400028700133E01A834202F80169F5DB084691
:10125000F0BC704710B40F4B53F8302092F8804226
:101260002CB1012369B182F8803010BC704703EBC8
:10127000C0035B681A6841B922F002021A6010BC10
:10128000704782F8003110BC704742F003021A60C8
:1012900010BC7047344700001C4A02EBC003012910
:1012A0005B6811D004291BD052F83000002280F86E
:1012B000802229B1022920D0032922D01A60704748
:1012C0004FF480721A60704752F830004FF4A272E7
:1012D00080F880121A601A6822F020021A607047A3
:1012E00052F830104FF4A272012081F880021A6087
:1012F0001A6842F020021A60704740F203121A6026
:1013000070474FF481721A60704700BF3447000085
:1013100030B4054B054D064C002210211A602A609E
:101320002060196030BC704714D0034004D00340E3
:1013300000D00340212801D8FFF78CBF704700BFC1
:10134000212801D8FFF7A8BF704700BF72B60C492B
:101350000C4B0D4A1B680868126862B6520102D530
:10136000322B88BF01300949C3F5BB334FF47A7281
:10137000FF33A1FB031302FB00F000EB9310704757
:10138000F890FF1F18E000E004ED00E0ABAAAAAA65
:101390002DE9F843054672B6204F214B214A1B68C0
:1013A0003C68126862B6520102D5322B88BF013404
:1013B00095B3C3F5BB331C4EDFF86490DFF864804F
:1013C000FF334FF47A72A6FB031302FB04F404EB21
:1013D000931472B6D9F800103A68D8F800E062B6F3
:1013E000C1F5BB33FF33A6FB03031EF0806FC4EBD4
:1013F00093134FF47A7002D0322988BF013200FB78
:101400000233B3F57A7F04D3013D05D004F57A7435
:10141000DFE702F019F9DCE7BDE8F883F890FF1F79
:1014200018E000E004ED00E0ABAAAAAAF8B52D4B45
:101430002D49DFF8D0E0DFF8D0C02C4E2C4D2D4CDC
:101440002D4A2E4F4FF4000018604FF08070186046
:101450004FF0007018604FF0806018604FF000602F
:1014600018600020086028234BF6FF71CCF80010AC
:10147000CEF80030336013602B6023603B60B362B2
:101480009362092245F8242CC4F8D80F05F57F652E
:10149000C7F8D41F07F5FF2707F5FA67C6F8F83F26
:1014A0002B6006F5FF26C4F8D42F05F5FD2504F5BD
:1014B000FF24386006F2F4761148316005F5FF65C7
:1014C00004F5FD642B602360026002F005FA192028
:1014D000FFF75EFF01F036FE40F21310BDE8F84062
:1014E000FFF756BF08E100E004800340148003408A
:1014F000248003402C8003401C8003403480034040
:1015000000800B400C800340088003402DE9F84F19
:10151000254B1B6807460BB101221A70234B1B7821
:1015200023B1234A937943F020039371DFF88C9021
:10153000204D99F80040DFF888801D4E01343F2C83
:101540008ABF4FF0000A5FFA84FA5446AB462B7804
:10155000A34216D102F076FA40281FDC33791B062D
:10156000F5D59BF8003001333F2B86BF0022134690
:10157000DAB218F80330DBB2F3712A702B78A34289
:10158000E8D00D490A4BFFB208F804700120BC22D4
:10159000087089F800A0DA70BDE8F88FFF28D6DD62
:1015A00002F052F8D3E700BF8C91FF1F4591FF1F57
:1015B00000A006408991FF1F8891FF1F9091FF1F97
:1015C0000491FF1F2B4A2C491368F0B543F4806344
:1015D00013600A78294F2A4E2A4D2B4C2B490023A1
:1015E0003B7033702B7023700B70002A3DD0152A8E
:1015F00021D0274B1B78012B25D0052B30D01F285D
:1016000027D8002002460125224B234C1A7023497B
:101610005D7004224FF0020E88273C264025987208
:101620009A704FF4005083F813E05A751F74DE70FF
:1016300025700860F0BD1A4B40F213321A60144B4B
:101640001B78012BD9D1174B4FF451721F281A6008
:10165000D7D9C0F34432C0F3471500F01F00D3E7D9
:10166000114B4FF451721A60C9E7104B40F213321C
:101670001A60BEE7348004404491FF1F0091FF1FB1
:101680000191FF1F9091FF1F8991FF1F8891FF1FFC
:101690006C87FF1F00A006402DE400E004E100E09D
:1016A00018C0044044A004401CC0044040A00440B2
:1016B00010B4214B9B7803F0EC0200F003031343BA
:1016C000440748BF43F0100310F4807203F07F0317
:1016D00023D0194A194943F0A0039370937903F07A
:1016E000DF03937100F00F030124042B0C701CD056
:1016F000114B114A5B79C10603F0EF0348BF43F079
:10170000100353719379820603F0EF030A4A48BF2E
:1017100043F01003937110BC7047074C0749A37046
:1017200000F00F03042B0A70E2D1034A937943F0CF
:1017300040039371DCE700BF00A006404591FF1F06
:10174000234B1B685B0541D510B5224C237823B190
:1017500001F07AFF2378002BFAD11F481F4A204B53
:101760004FF4005400210460D1701B78FBB1152B9D
:1017700003D11C4B40F203121A601B4B1B7803F081
:101780007F03012B1DD0052B03D1184B40F2031210
:101790001A60174A114B1748174912681C79DB79F0
:1017A000002303700B700AB10123137010BD134B9B
:1017B00040F203121A600C4B1B7803F07F03012BDD
:1017C000E1D10F4B40F203121A60E2E7704700BF0D
:1017D000348004408891FF1F84E100E000A00640AF
:1017E0004491FF1F18C004406C87FF1F1CC00440B9
:1017F000FC90FF1F0091FF1F0191FF1F40A00440BC
:1018000044A004400A4A38B50546137803F0FF04A3
:10181000002BFAD101212846FFF792FD21462846E8
:10182000FFF788FD034A044B52F835201A6038BD93
:101830008891FF1F344700008C91FF1F09B140F0D1
:101840008000174A1378984216D010B4154C2468BB
:1018500064050FD503F07F03012B1CD0052B11D09D
:10186000002900F07F0114BF6023442301290DD01B
:10187000052902D0107010BC70470B4943F4407327
:101880000B60F7E7084B00241C60E9E7074943F4C5
:1018900040730B60EEE7054B00241C60E0E700BFDF
:1018A0006C87FF1F348004401CC0044044A00440E7
:1018B000104B1A7882420AD00F490968490505D5AC
:1018C000AAB1152A09D068B1152801D0187070473F
:1018D0000A4A40F213311160F8E7084A002111600A
:1018E0000028F1D1064A40F213311160EEE70449B5
:1018F0000A60E8E74491FF1F3480044018C00440A8
:1019000040A004400D4B1B6813F4806305D02128D0
:1019100005D90B4B00201860704718467047094BDB
:1019200010B5074C53F8303023600121FFF708FD54
:10193000236800221A70012010BD00BF34800440CB
:10194000FC90FF1F344700000F4B1B6813F48063AB
:1019500008D0122808D0142811D00C4A537B03F069
:10196000FE03537300207047094B40F202321A60A5
:10197000064A537B43F00103537301207047054B24
:1019800040F202321A60F3E73480044000A00640BF
:101990000CA0044014C00440034B1B685B0501D538
:1019A000FFF7B4BD704700BF348004402DE9F84F05
:1019B0002E4B1B685A054CD52D4B1B6805460BB1A9
:1019C00001221A702B4B1B78002B49D105EB010A21
:1019D000554540D2DFF8AC80274CDFF8AC90274F5C
:1019E0000AE015F8012B09F80B20254A0123AA4526
:1019F000137088F800602ED098F80030227803F138
:101A0000010BBBF13F0F86BF0026B3465FFA8BF692
:101A10009345E6D1BC22FA7005E03A7913060BD45F
:101A200022789345DDD102F00DF84028F5DDFF283E
:101A3000F6DD01F009FEF3E7227801323F2A86BF86
:101A400000210A46D1B219F80220D2B2FA712170EF
:101A5000E6E7BDE8F88F094BBC22DA70BDE8F88FE5
:101A6000064A937943F020039371AFE73480044032
:101A70008C91FF1F4591FF1F8991FF1F00A0064019
:101A80008891FF1F9091FF1F0491FF1F10B5044C18
:101A9000237823B101F0D8FD2378002BFAD110BDB3
:101AA0008891FF1F064A074B1B781078DBB2C0B243
:101AB00083422CBF3F3000F1FF30C01A704700BF97
:101AC0008991FF1F9091FF1F054A064B10781B78E4
:101AD000C0B2DBB2984238BF4030C01A704700BF76
:101AE0000091FF1F0191FF1F30B4154B154C1A7860
:101AF0002378D2B2DBB29A421ED001333F2B0ED9EB
:101B00001149124B087819680023C0B2237021B123
:101B1000D31A1A2B01DC00230B7030BC70470A4823
:101B20000A49C05C0968DDB2C0B225700029F4D052
:101B30009A4238BF4032EBE74FF0FF30EDE700BF8D
:101B40000091FF1F0191FF1F4891FF1FFC90FF1F95
:101B5000084A094B12781B78DBB29A4207D001334E
:101B6000402B28BF0023054AD05CC0B270474FF01D
:101B7000FF3070470091FF1F0191FF1F4891FF1F29
:101B80000D4B1B685B0516D530B40C4B0C4CDA784A
:101B90000C480D4902F0CB024025DA705D74DA780A
:101BA00042F03402DA7023780268DBB20B700AB1BB
:101BB0000023137030BC70473480044000A00640FE
:101BC0000191FF1FFC90FF1F0091FF1FF0B43C4BE1
:101BD0001A7912F0300F2CD072B6997D01F0FF0205
:101BE000002945D062B6374F374938780D78374EDF
:101BF0001C46C0B2EDB2431C402BE17928BF002344
:101C0000AB4202F1FF32C9B21CBFF154184612F0C8
:101C1000FF02F0D12E4B1B68C2B23A704BB1A84202
:101C200036BFC5F14005401B40192728C4BF01221B
:101C30001A702349CA78D2B215061ED4520615D599
:101C40001F4B1B795B0611D5224B23491B680022D1
:101C50000A7003B11A70214B1B7823B1184A93798B
:101C600003F0DF039371164B3C22DA70F0BC70472F
:101C70004022D9795A7462B6DBE70B791C06DDD5B0
:101C8000174B184E1C783378E4B2DBB29C420ED06E
:101C9000154D01E0A3420AD00133402B28BF002399
:101CA0000879E85CC0B2C871087D0728F2D9DBB2B8
:101CB000034933700B79180644BF7C23CB70BDE712
:101CC00000A006400091FF1F0191FF1F4891FF1FD8
:101CD000FC90FF1F8C91FF1F8891FF1F4591FF1FF4
:101CE0009091FF1F8991FF1F0491FF1F2B4A2C49E0
:101CF0001368F0B543F4006313600A78294F2A4E45
:101D00002A4D2B4C2B490023092A3B7033702B7032
:101D100023700B703DD01A2A21D0274B1B780A2B39
:101D200025D01F2B30D01F2827D8002002460125A0
:101D3000224B234C1A7023495D7004224FF0020E8F
:101D400088273C26402598729A704FF4004083F80B
:101D500013E05A751F74DE7025700860F0BD1A4BD1
:101D600040F213321A60144B1B780A2BD9D1174B4F
:101D70004FF451721F281A60D7D9C0F34432C0F310
:101D8000471500F01F00D3E7114B4FF451721A6052
:101D9000C9E7104B40F213321A60BEE734800440AA
:101DA0006D87FF1F0892FF1F9991FF1F1092FF1F61
:101DB0000992FF1F9891FF1F6E87FF1F00B006401A
:101DC0002FE400E004E100E004D0044010B004403F
:101DD00000D004400CB0044010B4214B9B7803F0B9
:101DE000EC0200F003031343440748BF43F0100321
:101DF00010F4807203F07F0323D0194A194943F08D
:101E0000A0039370937903F0DF03937100F00F0345
:101E10000124042B0C701CD0114B114A5B79C106B4
:101E200003F0EF0348BF43F0100353719379820628
:101E300003F0EF030A4A48BF43F01003937110BC4C
:101E40007047074C0749A37000F00F03042B0A707A
:101E5000E2D1034A937943F040039371DCE700BF7A
:101E600000B00640C491FF1F234B1B681B0542D5E1
:101E700010B5224C237823B101F0E6FB2378002B28
:101E8000FAD11F481F4A204B4FF400440021046040
:101E9000D1701B78092B1FD01A2B03D11B4B40F29A
:101EA00003121A601A4B1B7803F07F030A2B1DD014
:101EB0001F2B03D1174B40F203121A60164A114B25
:101EC0001648174912681C79DB79002303700B70E0
:101ED0000AB10123137010BD124B40F203121A60B5
:101EE0000B4B1B7803F07F030A2BE1D10E4B40F222
:101EF00003121A60E2E77047348004409891FF1F94
:101F000084E100E000B006406D87FF1F04D004406C
:101F10006E87FF1F00D004409491FF1F0892FF1F9F
:101F20009991FF1F0CB0044010B004400A4A38B524
:101F30000546137803F0FF04002BFAD1012128464F
:101F4000FFF7FEF921462846FFF7F4F9034A044B50
:101F500052F835201A6038BD9891FF1F34470000B1
:101F60000C92FF1F09B140F08000174A1378984285
:101F700016D010B4154C246824050FD503F07F0348
:101F80000A2B1CD01F2B11D0002900F07F0114BF99
:101F9000602344230A290DD01F2902D0107010BCE1
:101FA00070470B4943F440730B60F7E7084B00247C
:101FB0001C60E9E7074943F440730B60EEE7054B0B
:101FC00000241C60E0E700BF6E87FF1F34800440E0
:101FD00000D0044010B00440124B1A7882420CD05A
:101FE00011490968090507D5092A16D01A2A0AD005
:101FF00009280DD01A2801D0187070470B4A40F2FA
:1020000013311160F8E7094A002109281160F1D164
:10201000074A40F213311160EEE7054A00211160D2
:10202000E6E700BF6D87FF1F3480044004D0044002
:102030000CB004400D4B1B6813F4006305D021283D
:1020400005D90B4B00201860704718467047094BA4
:1020500010B5074C53F8303023600121FFF770F9B9
:10206000236800221A70012010BD00BF3480044094
:102070009491FF1F344700000C4B1B6813F400635E
:1020800006D0172806D00A4A537B03F0FE03537389
:1020900000207047074B064A40F202311960537B1B
:1020A00043F0010353730120704700BF34800440A4
:1020B00000B0064008B004402DE9F84F284B1B68DB
:1020C0001A053FD5274B1B680BB101221A70264B0E
:1020D0001B78002B3DD1DFF8A090244D99F80040EB
:1020E000DFF89880224E0134272C8ABF4FF0000A77
:1020F0005FFA84FA54460746AB462B789C4216D1C9
:1021000001F0A0FC40281FDC33791B06F5D59BF8B5
:1021100000300133272B86BF00221346DAB218F8AD
:102120000330DBB2F3712A702B789C42E8D011495E
:102130000F4BFFB20120BC2208F80470087089F828
:1021400000A0DA70BDE8F88FFF28D6DD01F07CFA38
:10215000D3E7074A937943F020039371BBE700BFAD
:10216000348004400C92FF1FC491FF1F0992FF1F8F
:1021700000B006409891FF1F1092FF1F9C91FF1F17
:102180002DE9F84F2E4B1B681A054CD52D4B1B68BB
:1021900005460BB101221A702B4B1B78002B49D13D
:1021A00005EB010A554540D2DFF8AC80274CDFF83B
:1021B000AC90274F0AE015F8012B09F80B20254AAF
:1021C0000123AA45137088F800602ED098F80030DB
:1021D000227803F1010BBBF1270F86BF0026B3461F
:1021E0005FFA8BF69345E6D1BC22FA7005E03A79A6
:1021F00013060BD422789345DDD101F023FC40284F
:10220000F5DDFF28F6DD01F01FFAF3E72278013251
:10221000272A86BF00210A46D1B219F80220D2B27D
:10222000FA712170E6E7BDE8F88F094BBC22DA703D
:10223000BDE8F88F064A937943F020039371AFE726
:10224000348004400C92FF1FC491FF1F0992FF1FAE
:1022500000B006409891FF1F1092FF1F9C91FF1F36
:1022600010B5044C237823B101F0EEF92378002B4C
:10227000FAD110BD9891FF1F064A074B1B781078C2
:10228000DBB2C0B283422CBF273000F1FF30C01A4E
:10229000704700BF0992FF1F1092FF1F054A064BAF
:1022A00010781B78C0B2DBB2984238BF4030C01AF9
:1022B000704700BF0892FF1F9991FF1F30B4154B64
:1022C000154C1A782378D2B2DBB29A421ED0013371
:1022D0003F2B0ED91149124B087819680023C0B260
:1022E000237021B1D31A1A2B01DC00230B7030BCF0
:1022F00070470A480A49C05C0968DDB2C0B225705F
:102300000029F4D09A4238BF4032EBE74FF0FF305B
:10231000EDE700BF0892FF1F9991FF1FC891FF1FB3
:102320009491FF1F084A094B12781B78DBB29A423E
:1023300007D00133402B28BF0023054AD05CC0B230
:1023400070474FF0FF3070470892FF1F9991FF1FB1
:10235000C891FF1F0D4B1B681B0516D530B40C4BE5
:102360000C4CDA780C480D4902F0CB024025DA70AB
:102370005D74DA7842F03402DA7023780268DBB2F6
:102380000B700AB10023137030BC704734800440D6
:1023900000B006409991FF1F9491FF1F0892FF1F04
:1023A000F0B43C4B1A7912F0300F2CD072B6997DF4
:1023B00001F0FF02002945D062B6374F374938781F
:1023C0000D78374E1C46C0B2EDB2431C402BE1796C
:1023D00028BF0023AB4202F1FF32C9B21CBFF15447
:1023E000184612F0FF02F0D12E4B1B68C2B23A70B1
:1023F0004BB1A84236BFC5F14005401B4019272804
:10240000C4BF01221A702349CA78D2B215061ED45D
:10241000520615D51F4B1B795B0611D5224B23495C
:102420001B6800220A7003B11A70214B1B7823B17C
:10243000184A937903F0DF039371164B3C22DA704C
:10244000F0BC70474022D9795A7462B6DBE70B7949
:102450001C06DDD5174B184E1C783378E4B2DBB27E
:102460009C420ED0154D01E0A3420AD00133282B27
:1024700028BF00230879E85CC0B2C871087D07282E
:10248000F2D9DBB2034933700B79180644BF7C23C1
:10249000CB70BDE700B006400892FF1F9991FF1F67
:1024A000C891FF1F9491FF1F0C92FF1F9891FF1F6F
:1024B000C491FF1F1092FF1F0992FF1F9C91FF1FE5
:1024C000431E032B14D872B60A4951F8230068B191
:1024D00070B4094C058834F81320466841F823602D
:1024E000521B24F8132062B670BC704762B6704766
:1024F000002070476C92FF1FE493FF1F01380328F0
:102500000BD872B6074B53F8203043B100205B68FC
:102510000130002BFBD162B670470020704718468F
:10252000F9E700BFC092FF1F30B472B62B4A137890
:102530001D0706D52A4B196A002936D0996A002949
:1025400041D053781C0706D5254B196C00293ED085
:10255000996C002939D09378190705D5204B196E4D
:10256000002936D0996E89B1D3781B0707D51C4B4B
:10257000D3F880207AB3D3F8882011213AB162B61B
:10258000184B00221A7030BC00F07EBE0D21154C95
:10259000154D227843F8315003EBC1030830013A5E
:1025A0005860227062B630BC704704220D4C0F4D4B
:1025B000217843F8325003EBC20308304A1E5860BA
:1025C000227062B6EFE70521E1E70921DFE7082283
:1025D000ECE70C22EAE71022E8E700BF6C480000B5
:1025E0000080FF1FE992FF1FC800400088004000E4
:1025F000431E032B1DD81B4A400140F0100030B48D
:10260000104472B6184CE25C032A1BD8DFE802F0D3
:102610000212151703220D88E25410F0080F14BFA0
:10262000C823882343EA054308310360416062B64A
:1026300030BC704708300222EDE70522EBE7083096
:102640000422E8E7094A52F8230038B1084A52F850
:102650002300416042F8231062B6E9E742F82310F4
:10266000034AF7E70080FF1FF892FF1FC092FF1F89
:10267000D092FF1F2DE9F04FDFF80CB3DFF80CA369
:1026800087B044E0AB4F4FEA930807EBC809013E1F
:10269000D9F8042003F00803F6B2A2F1080003F011
:1026A000FF04002B40F0028157F838301B0C99B220
:1026B00022F8081C002B00F0F0809F4B22F8064CFB
:1026C00042F8044C53F82620002A00F0C5829B4DA6
:1026D00055F8263058609A4C45F8260034F81630E4
:1026E000194424F8161000F0AFFD002800F0AD8268
:1026F000944A954B19F0080F00F1080018BF1346D3
:10270000C9F8040047F8383008238BF800309BF8EC
:102710000040E4B261071AD58C4B1B78A3B18C49F9
:102720000A7802F0FF0322B1013BDBB20B7003B960
:1027300000BE88490A7802F0FF032AB1013BDBB2F0
:102740000B70002B00F0578204238BF8003004F04C
:10275000080303F0FF02002B00F0CC809AF8003051
:10276000DBB21E098ED19C08DFF8C89159F83420DD
:1027700009EBC401C2F38302013A49680C2A00F252
:102780008880DFE802F07C7C86868686868647869F
:10279000868607000868704D4A68704F704E286042
:1027A00081B240F28160674B6A604FF0010E0022F7
:1027B000814249F834303A60C9F81020C9F818202D
:1027C00086F800E05B4C00F2E380B1F5D06F80F05A
:1027D0004683B1F5817F00F0FC8200F28D82802972
:1027E00000F07783822940F0FA82A98801F07F0106
:1027F000042900F2F4825B485B4C89000844227093
:1028000062700278930740F1588484F800E04FF03A
:10281000020E42E3514F3A6832B3544B504E544982
:10282000188834780D784028864645F0020828BF7D
:102830004FF0400E002C84F001043470CEEB000009
:102840000CBF8824C82409EBC80680B285F00105B6
:1028500044EA0E447260188049F8384072440D70A2
:10286000002800F045813A603B4B1A88B2F5A06F12
:102870000FD100219A7859703E4B1A7009E0364A00
:10288000108842F22102904200F037812D4A49F827
:102890003420394A0123137036E72A4A2A4B19F0AB
:1028A000080F18BF134647F838302DE700F0ECFC4E
:1028B000324A334952F82630002B00F0D181586853
:1028C0008C5D42F8260003F10802C9F80420032CAD
:1028D00005D8DFE804F02C02292602228A551A883E
:1028E00019F0080F0CBF8823C82343EA024347F8B6
:1028F000383009E7E00700F18181210600F1F2811B
:10290000A20706D51F4A204913780220DBB21370B4
:102910000870E30602D51C4B10221A7007B0BDE800
:10292000F08F04228A55DAE705228A55D7E7032279
:102930008A55D4E70080FF1F6C92FF1F1892FF1F7B
:10294000E493FF1FC800400088004000F492FF1F7E
:102950007D92FF1FFC92FF1FE092FF1F1492FF1F4A
:102960007C92FF1FC0200740EC92FF1F2892FF1FA0
:10297000E892FF1F9820074094200740C092FF1F55
:10298000F892FF1F882007408020074090200740D2
:1029900042F22100814200F02A8100F2D880B1F594
:1029A000086F00F07682B1F5106F40F01882226A4D
:1029B000B349A8780870120600F13A83D9F82820A4
:1029C000B049130600F10C83D9F83020AD49150643
:1029D00000F10183D9F83820AA49140600F1F682E3
:1029E000D9F84020A749100600F14A83D9F84820B9
:1029F000A449120600F13F83D9F85020A1491306DB
:102A000000F13483D9F858209E49150600F1298336
:102A1000D9F860209B49140600F11E83D9F868207C
:102A20009849100600F11383D9F8702095491206D1
:102A300000F10883D9F878209249130600F1FD824D
:102A4000D9F880208F49150600F13183D9F8882004
:102A50008C49140600F12583D9F890208949100685
:102A600000F11983D9F898208649120600F10D83E8
:102A70008548864A864901908648874D874C049749
:102A800000230596029580460F4616461D46039480
:102A9000306828B1446800F0F7FB2046002CF9D1DB
:102AA00000233360029B38681A46002342F8253021
:102AB00028B1446800F0E8FB2046002CF9D1002240
:102AC0003A60019A98F800301146002241F8042B30
:102AD000039A0191023B4FF0000122F81510032BDD
:102AE00000F22B81DFE813F0700125017001250150
:102AF000BEF1400F18BF0022B5E6694A0D7848784C
:102B0000157050708D78C8789570D07010680D79F8
:102B1000157186284D7989795571917100F09B81E5
:102B20006049614E0A78307882F00105002842F051
:102B300002020D700CBF8821C82149F8321009EB40
:102B4000C20280F001000021307051609EE642F226
:102B50002120814240F0CB81544B554C5549A878F7
:102B60001D682560CDF804E00870002002908046C2
:102B7000844604464B490D7845F0020E09EBCE031E
:102B80000393019B002B039B5C600CBF8824C8242B
:102B900044EA080385F0010449F83E3032700C70B5
:102BA000DFF8E0E0404BDFF8FC80002840F01E81B9
:102BB000BCF1400F1BD144F0020C09EBCC03029C8A
:102BC000DFF8C0E05C60002A40F02681020442F099
:102BD00088029DF804304EF83C20044433700D7098
:102BE0002346402803D10020334A3B601080334AFB
:102BF000012313704DE600F003FDA5E5214B2F489E
:102C000028491A614FF0020E80F800E02C4F0A703C
:102C10002C49196099602C4E2C4D2D4C9A610D2138
:102C20003970FF213170DFF8B8E029702270294D2A
:102C3000294A8EF800109F27012406F8047C5D6065
:102C40000470DA6007B0BDE8F08F244A47F8380016
:102C500013780133137057E543F826000E4D3AE51B
:102C60008B5D032B00F2F08001A252F823F000BF2D
:102C700009270000092700002D2D0000272D000046
:102C8000F492FF1F0080FF1FD092FF1F6C92FF1F66
:102C9000C092FF1FF892FF1F1892FF1FE493FF1FBF
:102CA000EC93FF1FE892FF1F7C92FF1FF890FF1F1D
:102CB000F493FF1F0C93FF1F2892FF1F94200740DF
:102CC000C02007408800400088200740802007403F
:102CD000982007402C92FF1F8092FF1FE992FF1F50
:102CE0008C200740C149C24B80220D2008701A7009
:102CF000A2077FF50EAE05E640F20232914240F0A7
:102D0000EE80A98801F07F01042968D86A88002A2A
:102D100065D1B648CDF804E089000844017841F057
:102D20000201017021E701238B55EDE400238B554F
:102D3000EAE44FF0010388F800300135042D06F174
:102D4000040607F1040708F101087FF4A1AEA94CBD
:102D5000A94B2278A94D049F059E002129701A7065
:102D6000130700F105816278A549DFF8A0820A7097
:102D700010074FF00001C9F83010C9F8381000F101
:102D8000E080A049A2780A700021C9F85010C9F863
:102D900058101107DFF8748200F10181E2789A4936
:102DA0009A4C0A7000211207C9F87010C9F87810FF
:102DB00000F1B08033780193002183F00102C9F85B
:102DC0009010C9F89810D0E64FF0000388F8003052
:102DD000B3E7A98801F07F01042940F28D80834A7E
:102DE0000F2313708A4A0123137052E540287FF69F
:102DF000E2AE44F002040EEBC401029E4E60BAB192
:102E00009DF80410834A19703346403888F8005002
:102E100040334EF83420E7E69DF804303370020466
:102E2000029B0D7042F0C80203444EF83C20D8E6E5
:102E30009DF804101970029B774A88F800504038BA
:102E400040334EF83420CFE619F0080F0CBF0223B0
:102E500003238B5558E4714A0F21117060E6704AC4
:102E60005468002CBBD06888B5F804E003E00C324D
:102E70005468002CB3D013888342F8D1538873452B
:102E8000F5D1000A03280CBF94F800E0B2F808E07E
:102E900003E0644A644C12782270E888704580F040
:102EA0003F8162490D784028844645F0020E28BFD4
:102EB0004FF0400C04EB0C0309EBCE02029301230C
:102EC0005460CCEB00004FEA0C4800220193C82468
:102ED0005EE6554C4FF0020E22706270DDE7B1F5F0
:102EE000A06F7FF47CAF0123002201933DE642F204
:102EF00021329142F7D072E76A88002A7FF46FAFDF
:102F00003A48CDF804E089000844017821F0020134
:102F100001702AE600F098F9002800F0EF800830F0
:102F20003D4AC4F88400C4F8802000F08DF90028E0
:102F300000F0DE800830374AC9F88C00C9F88820D4
:102F400038E700F081F9002800F0C0800830324AEC
:102F5000C8F84400C8F8402000F076F9002800F0D6
:102F6000AF8008302B4AC9F84C00C9F8482008E760
:102F700000F06AF9002800F0CD800830264AC9F830
:102F80002400C9F8202000F05FF9002800F0BC8080
:102F90000830204AC9F82C00C9F82820E3E600F0E0
:102FA00053F9002800F09E8008301B4AC8F86400DE
:102FB000C8F8602000F048F9002800F08D80083043
:102FC000144AC9F86C00C9F86820E7E6C86B0838ED
:102FD00000F05AF904E5486B083800F055F9F9E4B7
:102FE000C86A083800F050F9EEE400BFC02007407E
:102FF000802007406C480000C4200740E992FF1F72
:10300000C8200740CC200740D02007400080FF1F89
:1030100094200740C8004000880040007D92FF1FB8
:1030200070480000F492FF1FEC92FF1FE892FF1F10
:10303000606A083800F028F9C0E4C86F083800F06A
:1030400023F9FDE4486F083800F01EF9F2E4C86E79
:10305000083800F019F9E7E4486E083800F014F970
:10306000DCE4C86D083800F00FF9D1E4486D083889
:1030700000F00AF9C6E4C86C083800F005F9BBE4B2
:10308000486C083800F000F9B0E4D1F89C0008382A
:1030900000F0FAF8ECE4D1F89400083800F0F4F805
:1030A000E0E4D1F88C00083800F0EEF8D4E4D1F870
:1030B0008400083800F0E8F8C8E44FF0020EECE6AF
:1030C0002A78C9F8480001322A705AE62A78C8F8E6
:1030D000400001322A703FE72A78C9F868000132BF
:1030E0002A705BE62A78C8F8600001322A7061E72E
:1030F0002A78C9F8880001322A705BE62A78C4F879
:10310000800001322A7010E72A78C9F828000132BD
:103110002A7028E62A78C9F8200001322A7032E79E
:10312000BEF1400FF44628BF4FF0400C04EB0C03F7
:1031300002930123CCEB0E004FEA0C4800220193CE
:1031400018E500BFF8B500F021FD294B29482A4CAD
:103150002A4F2B4DDFF8BCC0DFF8BCE0294E00221F
:103160001A605A609A60DA601A615A619A61DA618B
:103170001A625A629A62DA621A635A639A63DA636B
:103180001A645A649A64DA641A655A659A65DA654B
:103190001A665A669A66DA661A675A679A67DA672B
:1031A000C3F880200168C3F8842041F480210160C5
:1031B000C3F307212170C3F30740134938701B0E76
:1031C0002B70FF238CF80030104D8EF80030104823
:1031D0000B700123337084F8642070264FF4007460
:1031E000102207F82C3C2E70046081F8F820F8BDFE
:1031F0000080FF1F348004409C200740B02007401F
:10320000B4200740942007401020074049E400E024
:1032100008E100E0802007408820074000F0F4B873
:1032200000F07CB800F056B800F090B800F0BCB9DF
:1032300000F096B90846114600F002B9084600F0C1
:1032400083B900BF704700BF72B60D480268B2FA7A
:1032500082F30B2B10DC4FF00041D94022EA01022F
:10326000026062B6074803EBC303DB00C21800210B
:10327000C15010465160704762B60020704700BFD1
:103280008087FF1FBC83FF1F0D4B0E4AC31AA2FB92
:1032900003231B090B2B0CD80B4A127852B972B6B8
:1032A0000A484FF00041026821FA03F31A43026012
:1032B00062B67047064A1278002AF0D0FFF734B998
:1032C000BC83FF1F398EE338E992FF1F8087FF1F01
:1032D000F492FF1F38B50F4D286878B143880288F3
:1032E000C118013393420C7A02D24380204638BD84
:1032F000FFF7CAFF002320462B6038BD064B1B7822
:103300002BB10320FFF7DCF828600028E6D14FF04E
:10331000FF3038BD0893FF1FF492FF1F10B5094C12
:10332000206818B143881844007A10BD064B1B78FA
:103330002BB10320FFF7C4F820600028F2D14FF032
:10334000FF3010BD0893FF1FF492FF1F044B054A86
:103350001B6890881BB11A885B88D31A1844704781
:103360000893FF1FE493FF1F2DE9F84F0E46002935
:1033700042D0DFF890A09AF8003003F0FF091BB3A9
:103380004FF000091E4F8046CB463C6824B3258889
:103390006388ED1AB54228BF354604F10801194487
:1033A0002A464046FDF796FE638822882B449BB24E
:1033B0009A42A944A6EB0506A844638016D91EB11B
:1033C0009AF80030002BE0D14846BDE8F88F058818
:1033D000002DDDD1FFF758FF0320FFF771F80446F9
:1033E00038600028F3D14846BDE8F88F2046FFF743
:1033F0004BFFC7F800B0E2E70846BDE8F88F00BF12
:103400000893FF1FF492FF1F0B4B1B789BB110B565
:103410000A4C206848B1FFF737FF002303202360E0
:10342000FFF74EF830B1FFF72FFF0320FFF748F802
:103430000028F8D110BD7047F492FF1F0893FF1FBA
:103440002DE9F04FDFF8F89083B0012289F80020D1
:10345000019169B3DFF8EC80364F019E8346D8F8BE
:103460000000B0B3344D4488C4F14001B14228BFDC
:10347000314604EB010E00221FFA8EFE2A70761AE6
:10348000A0F802E000F1080251B1013C2244594485
:103490001BF8014B02F8014F8B45F9D1B0F802E05F
:1034A000BEF13F0F0BD8254A05211170002ED6D151
:1034B0000198002389F8003003B0BDE8F08F402266
:1034C000028001460420FFF793F80022C8F800208C
:1034D000E9E73A782AB3184D4AF2F9244FF0010A85
:1034E00007E0013C16D02A78A2B900F0ADF83A788E
:1034F000BAB10420FFF702F80728F2D889F800A033
:10350000FFF7A2FEC8F800000028ACD10C4B013C2C
:103510001870E8D101234FF0FF302B7003B0BDE8E5
:10352000F08F00234FF0FF3089F8003003B0BDE882
:10353000F08F00BFF492FF1F0493FF1FFC92FF1F48
:10354000FD92FF1F0093FF1F00B583B002AB012166
:1035500003F8010D1846FFF773FF03B05DF804FB95
:1035600038B50E4D0E4C28680123237028B14088D1
:1035700000232370C0F1400038BD0A4B1B7813B9FB
:103580000020207038BD0420FEF7B8FF0728F7D8C8
:10359000FFF75AFE28600028E9D1F1E70093FF1FEA
:1035A000FD92FF1FF492FF1FF8B5114B1B788BB1F2
:1035B000104E114D346801272F7064B10F4A638893
:1035C00000271770214623800420FFF711F8376089
:1035D00000232B70F8BDFFF737FE084B28B10146DA
:1035E00004201C70FFF704F8F2E71F70F0E700BF3B
:1035F000F492FF1F0093FF1FFD92FF1FFC92FF1F1D
:1036000038B50E4B1B7873B90D4C216861B103F0CE
:10361000FF054B880B800420FEF7EAFF256038BDCC
:10362000084B01221A7038BDFFF70EFE0028F7D0B4
:103630000146BDE838400420FEF7DABFFD92FF1FC7
:103640000093FF1FFC92FF1F38B5224C237803B173
:1036500038BD01232370FFF779FE70BBFEF734FA03
:1036600040BBFEF71BFE10BB00F00AFAE0B90023D6
:103670002370EFF30583002BEAD1EFF3108172B6CC
:10368000154B1868E0B1154C2278CAB945691D6020
:1036900001232370C5B1AA6101B962B6002545773F
:1036A000836898472570D3E700F014F9DFE7FDF74A
:1036B00085FCD9E7FDF7DCFBD3E7FFF7C3FDCDE7DA
:1036C0000029C5D162B638BD054B1D600029E5D182
:1036D000E3E700BF0D93FF1F2093FF1F2493FF1FFD
:1036E0001C93FF1F10B4EFF3108272B6437F33B9FF
:1036F000017F012907D003290FD00123437702B9A5
:1037000062B610BC7047124C2168A1B111494361E7
:103710000B68836108605861EFE70F4C216881B145
:103720000E4943610B688361086058610C4B4FF090
:1037300080511960E1E7074B4161816120601860A9
:10374000DBE7064B4161816120601860EEE700BF56
:103750002093FF1F1C93FF1F1093FF1F1493FF1F45
:1037600004ED00E010B4047F4160022CC26002D07E
:1037700010BCFFF7B7BF836810BC184770B5EFF3F4
:10378000108272B60C4C206880B10C4E0025436943
:10379000236073B19D6102B962B64577836898472B
:1037A000EFF3108272B620680028F0D102B962B639
:1037B00070BD3360EFE700BF1093FF1F1493FF1F2E
:1037C000FFF7DCBF184A30B41468002C27D0036818
:1037D00021688B420ED2CB1A00218460C160236025
:1037E000E06010600223037530BC704711688B42A3
:1037F000144608D3A2685B1A0360002AF6D18260DF
:10380000C460A060EEE7D268C2608460E060C56812
:10381000CB1A0222A8602360027530BC7047846016
:10382000C4601060DEE700BF1893FF1FF8B5224E9A
:1038300034682CB32368002B3AD1204F1D4604E096
:103840003468ECB12368002B32D1A36803B1DD608A
:1038500020693360036825751B68BB4221D1037F53
:103860004560022BC46020D0FFF73CFF6368002B4B
:10387000E6D023602046FFF7A5FF3468002CE1D195
:10388000EFF3108372B60E4A00211068116003B97D
:1038900062B628B18468FFF795FF20460028F9D169
:1038A000F8BD224600219847E0E783689847DDE7A6
:1038B000013B2360E4E700BF1893FF1F653700005A
:1038C0002893FF1F024A136801331360FFF7AEBF4E
:1038D000F890FF1F704700BF30B42948294A2A4B8F
:1038E0002A4D6024E121047011701B78284C082BAC
:1038F00030D00A2B2748284937D00C2B0CBF352253
:103900003D2212232A60236002600B60234B24496E
:103910001B78244ABBB101230B601360224B23495F
:103920001B78234A012B26D9042B0FD9082B1ED92B
:10393000102B94BF862387230B6013601D4B01223D
:103940001A7030BC70470B601360E7E784230B608C
:103950001360F3E700F58E200F490830012213238E
:103960002A60236002600B60D0E73922F7E78523E5
:103970000B601360E2E780230B601360DEE700BF9B
:1039800000400740014007408487FF1F08B0034004
:103990000CB0034008B00B400CB00B402D93FF1F40
:1039A00020B0034020B00B408587FF1F24B00340A8
:1039B00024B00B402C93FF1F08B5104C08E023687F
:1039C00059050DD423681A050FD42368DB0411D4DC
:1039D00023685803F3D5FEF74DFE23685905F1D54A
:1039E000FEF7F4F823681A05EFD5FEF7D9FC236833
:1039F000DB04EDD500F054F8EAE700BF3480044062
:103A000008B5FFF7D9FF00BF014B10221A8070479D
:103A100000200540704700BF094908B50B6830B168
:103A20006A461844A2F58052904202D208601846B5
:103A300008BD00F0F9F80C2303604FF0FF3008BD1B
:103A40008887FF1FEFF3138070B9EFF310836BB912
:103A5000EFF305825AB94FF48070EFF311832BB165
:103A6000984228BF184670474FF0FF3070470F2A22
:103A700001D81846F1E7014BD05CEEE7F0E300E037
:103A8000054A064B10781B78C0B2DBB2984238BFAB
:103A90004030C01A704700BF3493FF1F3593FF1F9B
:103AA00030B42F4B1A7994061FD52E48DA79037853
:103AB0002D4901333F2B0978C8BF00238B42D2B276
:103AC00003D02A4CD9B2E2540170294A116861B17D
:103AD000284A1278D2B2934236BFC2F140029B1AF2
:103AE0009B18272BC4BF01230B701D4AD378DBB270
:103AF000180619D45A0615D5194B1B795B0611D532
:103B00001D4B1E491B6800220A7003B11A701C4B22
:103B10001B7823B1124A937903F0DF039371104BA2
:103B20002C22DA7030BC704711790906E2D51549AC
:103B300010480C780178C9B28C420DD04A1C272A53
:103B400084BF00210A46104D054C98BFD1B2AA5C33
:103B5000D2B2E2710170CDE76C21D170CAE700BF2B
:103B600000C006403493FF1F3593FF1F6493FF1F6F
:103B70003093FF1FA593FF1FA893FF1FA493FF1F60
:103B80006093FF1FAC93FF1F3893FF1F70B584B085
:103B900072B6194B194D1A48702241260F24802104
:103BA0001A702E701A460470197013781B06FCD513
:103BB000144B186862B6144B144C984298BF00EB33
:103BC000800001A998BF40000A22FDF71DFB01A952
:103BD0002046002311F8012B01333AB10A2B20F8BB
:103BE000022FF7D11623237004B070BD5B00DBB247
:103BF000237004B070BD00BF000002400700024007
:103C000006000240080002407F9698001888FF1FB7
:103C10000B460146184600F001B800BF13460A469D
:103C20000146022000F07ABB014B1868704700BFC4
:103C3000588CFF1F70B50F4E0F4D761BB61018BF76
:103C4000002405D0013455F8043B9847A642F9D129
:103C50000A4E0B4D761B00F037FEB61018BF00243D
:103C600006D0013455F8043B9847A642F9D170BDFF
:103C700070BD00BFD4480000D4480000E4480000F4
:103C8000D4480000024B0146186800F003B800BF9A
:103C9000588CFF1F2DE9F04F01F10B05162D83B055
:103CA000064640F29F8035F0070500F1BF80A9422B
:103CB00000F2BC8000F0A6FAB5F5FC7FC0F09C8253
:103CC0006B0A00F0BA80042B00F28381A80900F18E
:103CD000390E4FEA4E033830C44F07EB8303A3F18C
:103CE00008015C68A14207D1ACE0002A80F2AC80F8
:103CF000E468A14200F0A680636823F003035A1B26
:103D00000F2AF2DDB9493C6901F1080E744500F053
:103D1000B381636823F003035A1B0F2A00F39981D0
:103D2000002AC1F814E0C1F810E080F29E80B3F5DB
:103D3000007F80F06781DB0803F1010C01229B10FA
:103D400002FA03F34A6851F83C80C4F8088001EB9A
:103D5000CC091A43A9F10803E3604A6041F83C40EA
:103D6000C8F80C40831001249C40944200F28A80E1
:103D7000144206D120F003006400144200F1040054
:103D8000FAD007EBC009CC468046DCF80C108C4515
:103D900007D173E1002A80F28181C9688C4500F067
:103DA0006D814B6823F003035A1B0F2AF2DD0C468A
:103DB000D1F80CC054F8088F4B1945F001054D603F
:103DC00042F00101C8F80CC03046CCF808807B6195
:103DD0003B61C3F80CE0C3F808E059609A5000F06A
:103DE00013FA1FE0102921D800F00CFA1025062341
:103DF00002207E4F07EB8303A3F108025C68944224
:103E000000F045816368E168A56823F0030323445B
:103E100030465A68E96042F001028D605A6000F055
:103E2000F3F90834204603B0BDE8F08F00240C23DA
:103E30002046336003B0BDE8F08F80234FF0400E82
:103E40003F2049E770465DE72344E1685A68A5686A
:103E500042F00102E96030468D605A6000F0D4F90A
:103E60000834204603B0BDE8F08F234430465A683A
:103E700042F001025A6000F0C7F90834204603B04E
:103E8000BDE8F08FBC68636823F00308A84504D33D
:103E9000C5EB08030F2B00F38C80554BDFF86091C6
:103EA0001A68D9F8003001332A4404EB080A00F0FC
:103EB000608102F580520F3222F47F6222F00F02FD
:103EC00011463046019200F0A1F9B0F1FF3F834660
:103ED000019A00F05881824500F2FC80454B196838
:103EE000DA451144196000F05381D9F80000DFF879
:103EF00010E101301BBFCAEB0B0A5144CEF800B0F1
:103F000019601BF0070100F01781C1F10800C1F52D
:103F10008051834408315A44C2F30B02C2EB0109B9
:103F200049463046019300F071F9431C019B00F0B3
:103F30003F81CBEB00024A4442F001021968C7F806
:103F400008B04944BC42CBF804201960DFF8A490C3
:103F500016D0B8F10F0F40F2FD806268A8F10C0393
:103F600023F00703E01802F001024FF0050E1A4398
:103F70000F2B6260C0F804E0C0F808E000F21C817A
:103F80001D4BBC681A68914288BF19601B4B1A68A8
:103F90009142626888BF196022F003029542A2EB49
:103FA000050301D80F2B04DC304600F02DF9002466
:103FB00038E7621943F0010345F0010565603046BA
:103FC000BA60536000F020F90834204603B0BDE821
:103FD000F08F142B71D9542B00F2A480280B00F120
:103FE0006F0E4FEA4E036E3076E600BF5C8CFF1F0B
:103FF000B893FF1FBC93FF1FB493FF1FB093FF1F25
:104000006890FF1F5A0A042A5ED9142A00F2B3806E
:1040100002F15C0149005B3207EB810C57F821107B
:10402000DFF8DC81ACF1080C8C4500F088804A6830
:1040300022F00302934202D289688C45F7D1D1F86D
:104040000CC07A68C4F80CC0A160CCF80840CC6001
:1040500088E6631942F0010745F0010565603046C6
:104060004B610B61C3F80CE0C3F808E05F609A5045
:10407000083400F0C9F8D5E64A6873E608F101088B
:1040800018F0030F0CF1080C7FF47FAE30E0DC6811
:10409000A34208BF02303FF435AEB3E60B440C46F2
:1040A0005A68C96854F8085F42F001025A60304605
:1040B000E9608D6000F0A8F8B4E603F15C0E03F14E
:1040C0005B004FEA4E0307E69A0902F13901490005
:1040D0003832A1E7BC424A4B3FF400AF9C686268AB
:1040E00022F003025AE759F80839994540F08280D6
:1040F00010F0030F00F1FF30F5D17B6823EA0403D1
:104100007B6064009C423FF6BDAE002C3FF4BAAE2B
:104110001C4240467FF435AE64001C4200F10400AE
:10412000FAD02EE6B3F5AA7F18D8E80B00F1780E86
:104130004FEA4E037730CFE54FF48051EBE6012193
:10414000D8F80430921001FA02F21A43C8F8042099
:10415000614677E70123CBF8043025E740F254525B
:10416000934220D8A80C00F17D0E4FEA4E037C301C
:10417000B2E51032A4E6542A26D81A0B02F16F01D8
:1041800049006E3248E7BC68626822F0030205E726
:10419000CAF30B0000287FF4A8AE4244BB6842F08B
:1041A00001025A60ECE6FE234FF07F0E7E2093E57D
:1041B00001224FF00009C1E604F10801304600F089
:1041C00071F9D9F80010DBE6B2F5AA7F05D8DA0B51
:1041D00002F17801490077321EE740F254518A42D9
:1041E00005D89A0C02F17D0149007C3214E7FE21CA
:1041F0007E2211E77B6884E7E808431C5B00F8E552
:104200005C8CFF1F704700BF704700BF38B5074C7C
:104210000023054608462360FFF7FEFB431C00D041
:1042200038BD2368002BFBD02B6038BDF893FF1FEF
:10423000FFFFFFFFFFFFFFFFFFFFFFFFFFFFFFFF8E
:1042400090F800F06DE9024520F007016FF0000CD6
:1042500010F0070491F820F040F049804FF000047E
:104260006FF00700D1E9002391F840F000F1080059
:1042700082FA4CF2A4FA8CF283FA4CF3A2FA8CF391
:104280004BBBD1E9022382FA4CF200F10800A4FAF8
:104290008CF283FA4CF3A2FA8CF3E3B9D1E904234C
:1042A00082FA4CF200F10800A4FA8CF283FA4CF383
:1042B000A2FA8CF37BB9D1E9062301F1200182FA3D
:1042C0004CF200F10800A4FA8CF283FA4CF3A2FA43
:1042D0008CF3002BC6D0002A04BF04301A4612BA51
:1042E000B2FA82F2FDE8024500EBD2007047D1E954
:1042F000002304F00305C4F100004FEAC50514F0E3
:10430000040F91F840F00CFA05F562EA05021CBFB3
:1043100063EA050362464FF00004A9E72DE9F04780
:10432000254C2568D5F84841064688469246994668
:10433000C4B360681F2817DC431C76B104EB80050A
:104340000122C5F888A0D4F8881182401143022EBA
:10435000C4F88811C5F808911ED00230636044F893
:1043600020800020BDE8F087144B03B34FF4C870E1
:10437000FFF788FC0446D0B1D5F84831002780E823
:104380008800C5F8484138460123C4F88871C4F84C
:104390008C71002EE1D0D1E7D4F88C110A43C4F817
:1043A0008C21DAE705F5A674C5F84841C1E74FF05E
:1043B000FF30BDE8F08700BFC4480000853C000026
:1043C000024B13B1024800F005B87047000000002E
:1043D000E1430000002301461A461846FFF79EBF3E
:1043E00038B5074D074C2C1BA41005D0013C55F8DF
:1043F000043D9847002CF9D1BDE8384000F072BA6E
:104400000000000000000000F8B5234F0C460646EF
:10441000FFF7F8FEBB685D6825F00305291B01F670
:10442000EF7121F47F6121F00F01A1F58054B4F503
:10443000805F07DB00213046FFF7E8FEBB682B44B6
:10444000984204D03046FFF7DFFE0020F8BD6142FD
:104450003046FFF7DBFE01300DD0104BBA6819680B
:104460002D1B45F001053046091B55601960FFF70B
:10447000CBFE0120F8BD00213046FFF7C7FEBA6829
:10448000831A0F2BDEDD064C0449246843F0010338
:10449000001B53600860D5E75C8CFF1FBC93FF1FB7
:1044A0006890FF1F002945D02DE9F0410D46804658
:1044B000FFF7A8FE55F8047C6A4927F00103A5F12F
:1044C0000804E2188E685068B24220F0030062D0FF
:1044D000FE0750600BD455F8087CE41B01F1080E70
:1044E000A56875453B446FD0E768EF60BD6015185F
:1044F0006D68ED0742D543F001026260E350B3F509
:10450000007F18D2DB085A1C4D6851F83270A76042
:1045100001209B1000FA03F301EBC2001D43083891
:10452000E0604D6041F83240FC604046BDE8F0413B
:10453000FFF76ABE70475A0A042A53D89A0902F153
:1045400039077F0002F1380501EB870051F8272079
:104550004449083890424DD0516821F003018B4204
:1045600002D292689042F7D1D068E060A260846085
:10457000D4604046BDE8F041FFF746BE95683A4F2B
:10458000BD4203443FD0D068E86043F0010285603B
:104590006260E350B3E7FF07034407D455F8082CE3
:1045A000A41A1344A068E268C26090602F4A12689F
:1045B00043F00100934260608C60B6D32C4B4046C0
:1045C0001968FFF721FFB0E711184968C90744D4FB
:1045D0009168D268CA60034443F001009160606052
:1045E000E350A2E7142A17D802F15C077F0002F11A
:1045F0005B05A9E7AA104B68012505FA02F21343EF
:104600004B600246B1E743F001024C610C61E5608A
:10461000A5606260E35088E7542A06D81A0B02F1BD
:104620006F077F0002F16E058EE7B2F5AA7F06D80C
:10463000DA0B02F178077F0002F1770584E740F298
:104640005450824206D89A0C02F17D077F0002F195
:104650007C0579E7FE277E2576E743F0010262605C
:10466000E35062E75C8CFF1F648CFF1F6490FF1FA8
:10467000B893FF1F0000000000000000B50D00000F
:10468000D90D00006D0E0000690E0000650E0000DF
:10469000610E00005D0E0000290E00003D0E0000BE
:1046A000250E00001D0E0000150E00000D0E00006E
:1046B000FD0D0000ED0D0000E90D0000890D00006A
:1046C000910D0000990D0000A10D0000C10D00002A
:1046D000A90D00000000000000000000810E000095
:1046E000A50E0000390F0000350F0000310F00004B
:1046F0002D0F0000290F0000F50E0000090F00002B
:10470000F10E0000E90E0000E10E0000D90E0000DD
:10471000C90E0000B90E0000B50E00005D0F0000CC
:104720007D0F00009D0F00003D0F00008D0E00006A
:10473000750E00004008FE4340A004404408FE43BC
:1047400044A004400018FE4300C004403000FE4373
:10475000309004403400FE43349004401C18FE4363
:104760001CC004401018FE4310C004400818FE434B
:1047700008C004400C18FE430CC004400C10FE435B
:104780000CB004401010FE4310B004401810FE435B
:1047900018B004401C10FE431CB004401410FE432B
:1047A00014B004400418FE4304C004400010FE434B
:1047B00000B004400008FE4300A004400408FE438B
:1047C00004A004400C08FE430CA004400808FE436B
:1047D00008A004401418FE4314C004401818FE43F7
:1047E00018C004400410FE4304B004400810FE4307
:1047F00008B004401400FE43149004404C08FE43EB
:104800004CA004400420FE4304D004402410FE4386
:1048100024B004402010FE4320B004402810FE4382
:1048200028B004402C10FE432CB004400020FE436E
:1048300000D004404808FE4348A004401000FE4356
:104840001090044000000000000000003D32000015
:1048500035320000313200002D32000029320000D4
:1048600025320000213200001D320000001519150C
:10487000000100008C87FF1F1200000000020000F2
:10488000B887FF1F43000000000300001488FF1FCB
:104890000000000001030904A087FF1F00000000C2
:1048A00002030904FC87FF1F000000000303090442
:1048B0001888FF1F0000000000000000000000003A
:1048C000000000003088FF1FF8B500BFF8BC08BC2E
:1048D0009E467047C143000035040000E50B000010
:0448E000650D000062
:0448E400F8B500BF64
:1048E80000000000200000E7005F2071206420EB3A
:1048F80001000000002120D0005C20E47C4600007C
:1049080000000000E803000000000000DC46000092
:1049180000000000E803000000000000C10F0000D4
:10492800C10F0000C10F0000C10F000001090A00FB
:104938004C48000000000000E803000000000000F0
:10494800FFFFFFFF0A040000FC93FF1F1201100184
:1049580002000040C0168304750201020301000032
:1049680018035400650065006E0073007900640048
:10497800750069006E006F0009024300020100C063
:10498800320904000001020201000524001001059B
:1049980024010101042402060524060001070582FA
:1049A8000310004009040100020A00000007050383
:1049B800024000000705840240000000160355006D
:1049C8005300420020005300650072006900610036
:1049D8006C000000040309040C0300000000000040
:1049E80000000000000000000000000000000000BF
:1049F800000000001C8BFF1F848BFF1FEC8BFF1F28
:104A0800000000000000000000000000000000009E
:104A1800000000000000000000000000000000008E
:104A2800000000000000000000000000000000007E
:104A3800000000000000000000000000000000006E
:104A4800000000000000000000000000000000005E
:104A5800000000000000000000000000000000004E
:104A6800000000000000000000000000000000003E
:104A7800000000000000000000000000000000002E
:104A8800000000000000000000000000000000001E
:104A9800000000000000000001000000000000000D
:104AA8000E33CDAB34126DE6ECDE05000B000000D2
:104AB80000000000000000000000000000000000EE
:104AC80000000000000000000000000000000000DE
:104AD80000000000000000000000000000000000CE
:104AE80000000000000000000000000000000000BE
:104E180000000000000000003088FF1F00000000B4
:104E2800000000005C8CFF1F5C8CFF1F648CFF1F60
:104E3800648CFF1F6C8CFF1F6C8CFF1F748CFF1F12
:104E4800748CFF1F7C8CFF1F7C8CFF1F848CFF1FC2
:104E5800848CFF1F8C8CFF1F8C8CFF1F948CFF1F72
:104E6800948CFF1F9C8CFF1F9C8CFF1FA48CFF1F22
:104E7800A48CFF1FAC8CFF1FAC8CFF1FB48CFF1FD2
:104E8800B48CFF1FBC8CFF1FBC8CFF1FC48CFF1F82
:104E9800C48CFF1FCC8CFF1FCC8CFF1FD48CFF1F32
:104EA800D48CFF1FDC8CFF1FDC8CFF1FE48CFF1FE2
:104EB800E48CFF1FEC8CFF1FEC8CFF1FF48CFF1F92
:104EC800F48CFF1FFC8CFF1FFC8CFF1F048DFF1F41
:104ED800048DFF1F0C8DFF1F0C8DFF1F148DFF1FEE
:104EE800148DFF1F1C8DFF1F1C8DFF1F248DFF1F9E
:104EF800248DFF1F2C8DFF1F2C8DFF1F348DFF1F4E
:104F0800348DFF1F3C8DFF1F3C8DFF1F448DFF1FFD
:104F1800448DFF1F4C8DFF1F4C8DFF1F548DFF1FAD
:104F2800548DFF1F5C8DFF1F5C8DFF1F648DFF1F5D
:104F3800648DFF1F6C8DFF1F6C8DFF1F748DFF1F0D
:104F4800748DFF1F7C8DFF1F7C8DFF1F848DFF1FBD
:104F5800848DFF1F8C8DFF1F8C8DFF1F948DFF1F6D
:104F6800948DFF1F9C8DFF1F9C8DFF1FA48DFF1F1D
:104F7800A48DFF1FAC8DFF1FAC8DFF1FB48DFF1FCD
:104F8800B48DFF1FBC8DFF1FBC8DFF1FC48DFF1F7D
:104F9800C48DFF1FCC8DFF1FCC8DFF1FD48DFF1F2D
:104FA800D48DFF1FDC8DFF1FDC8DFF1FE48DFF1FDD
:104FB800E48DFF1FEC8DFF1FEC8DFF1FF48DFF1F8D
:104FC800F48DFF1FFC8DFF1FFC8DFF1F048EFF1F3C
:104FD800048EFF1F0C8EFF1F0C8EFF1F148EFF1FE9
:104FE800148EFF1F1C8EFF1F1C8EFF1F248EFF1F99
:104FF800248EFF1F2C8EFF1F2C8EFF1F348EFF1F49
:10500800348EFF1F3C8EFF1F3C8EFF1F448EFF1FF8
:10501800448EFF1F4C8EFF1F4C8EFF1F548EFF1FA8
:10502800548EFF1F5C8EFF1F5C8EFF1F648EFF1F58
:10503800648EFF1F6C8EFF1F6C8EFF1F748EFF1F08
:10504800748EFF1F7C8EFF1F7C8EFF1F848EFF1FB8
:10505800848EFF1F8C8EFF1F8C8EFF1F948EFF1F68
:10506800948EFF1F9C8EFF1F9C8EFF1FA48EFF1F18
:10507800A48EFF1FAC8EFF1FAC8EFF1FB48EFF1FC8
:10508800B48EFF1FBC8EFF1FBC8EFF1FC48EFF1F78
:10509800C48EFF1FCC8EFF1FCC8EFF1FD48EFF1F28
:1050A800D48EFF1FDC8EFF1FDC8EFF1FE48EFF1FD8
:1050B800E48EFF1FEC8EFF1FEC8EFF1FF48EFF1F88
:1050C800F48EFF1FFC8EFF1FFC8EFF1F048FFF1F37
:1050D800048FFF1F0C8FFF1F0C8FFF1F148FFF1FE4
:1050E800148FFF1F1C8FFF1F1C8FFF1F248FFF1F94
:1050F800248FFF1F2C8FFF1F2C8FFF1F348FFF1F44
:10510800348FFF1F3C8FFF1F3C8FFF1F448FFF1FF3
:10511800448FFF1F4C8FFF1F4C8FFF1F548FFF1FA3
:10512800548FFF1F5C8FFF1F5C8FFF1F648FFF1F53
:10513800648FFF1F6C8FFF1F6C8FFF1F748FFF1F03
:10514800748FFF1F7C8FFF1F7C8FFF1F848FFF1FB3
:10515800848FFF1F8C8FFF1F8C8FFF1F948FFF1F63
:10516800948FFF1F9C8FFF1F9C8FFF1FA48FFF1F13
:10517800A48FFF1FAC8FFF1FAC8FFF1FB48FFF1FC3
:10518800B48FFF1FBC8FFF1FBC8FFF1FC48FFF1F73
:10519800C48FFF1FCC8FFF1FCC8FFF1FD48FFF1F23
:1051A800D48FFF1FDC8FFF1FDC8FFF1FE48FFF1FD3
:1051B800E48FFF1FEC8FFF1FEC8FFF1FF48FFF1F83
:1051C800F48FFF1FFC8FFF1FFC8FFF1F0490FF1F32
:1051D8000490FF1F0C90FF1F0C90FF1F1490FF1FDF
:1051E8001490FF1F1C90FF1F1C90FF1F2490FF1F8F
:1051F8002490FF1F2C90FF1F2C90FF1F3490FF1F3F
:105208003490FF1F3C90FF1F3C90FF1F4490FF1FEE
:105218004490FF1F4C90FF1F4C90FF1F5490FF1F9E
:0C5228005490FF1F00000200FFFFFFFF7A
:00000001FF
